{
  "contractName": "Marketplace",
  "abi": [
    {
      "constant": true,
      "inputs": [],
      "name": "name",
      "outputs": [
        {
          "name": "",
          "type": "string"
        }
      ],
      "payable": false,
      "stateMutability": "view",
      "type": "function",
      "signature": "0x06fdde03"
    },
    {
      "constant": true,
      "inputs": [
        {
          "name": "",
          "type": "uint256"
        }
      ],
      "name": "products",
      "outputs": [
        {
          "name": "id",
          "type": "uint256"
        },
        {
          "name": "name",
          "type": "string"
        },
        {
          "name": "price",
          "type": "uint256"
        },
        {
          "name": "owner",
          "type": "address"
        },
        {
          "name": "purchased",
          "type": "bool"
        },
        {
          "name": "deleted",
          "type": "bool"
        }
      ],
      "payable": false,
      "stateMutability": "view",
      "type": "function",
      "signature": "0x7acc0b20"
    },
    {
      "constant": true,
      "inputs": [],
      "name": "productCount",
      "outputs": [
        {
          "name": "",
          "type": "uint256"
        }
      ],
      "payable": false,
      "stateMutability": "view",
      "type": "function",
      "signature": "0xe0f6ef87"
    },
    {
      "inputs": [],
      "payable": false,
      "stateMutability": "nonpayable",
      "type": "constructor",
      "signature": "constructor"
    },
    {
      "anonymous": false,
      "inputs": [
        {
          "indexed": false,
          "name": "id",
          "type": "uint256"
        },
        {
          "indexed": false,
          "name": "name",
          "type": "string"
        },
        {
          "indexed": false,
          "name": "price",
          "type": "uint256"
        },
        {
          "indexed": false,
          "name": "owner",
          "type": "address"
        },
        {
          "indexed": false,
          "name": "purchased",
          "type": "bool"
        },
        {
          "indexed": false,
          "name": "deleted",
          "type": "bool"
        }
      ],
      "name": "ProductCreated",
      "type": "event",
      "signature": "0xc7874741d6d69988c1782a4eb1fdeff8733853cb23ed70504ede1763de6fbd75"
    },
    {
      "anonymous": false,
      "inputs": [
        {
          "indexed": false,
          "name": "id",
          "type": "uint256"
        },
        {
          "indexed": false,
          "name": "name",
          "type": "string"
        },
        {
          "indexed": false,
          "name": "price",
          "type": "uint256"
        },
        {
          "indexed": false,
          "name": "owner",
          "type": "address"
        },
        {
          "indexed": false,
          "name": "purchased",
          "type": "bool"
        },
        {
          "indexed": false,
          "name": "deleted",
          "type": "bool"
        }
      ],
      "name": "ProductPurchased",
      "type": "event",
      "signature": "0x30fe1766f4be498b4b6e89a857a816b991b86ede45bd1a0f89a34cebccbd796d"
    },
    {
      "anonymous": false,
      "inputs": [
        {
          "indexed": false,
          "name": "id",
          "type": "uint256"
        },
        {
          "indexed": false,
          "name": "name",
          "type": "string"
        },
        {
          "indexed": false,
          "name": "price",
          "type": "uint256"
        },
        {
          "indexed": false,
          "name": "owner",
          "type": "address"
        },
        {
          "indexed": false,
          "name": "purchased",
          "type": "bool"
        },
        {
          "indexed": false,
          "name": "deleted",
          "type": "bool"
        }
      ],
      "name": "ProductDeleted",
      "type": "event",
      "signature": "0x70a95b8ef2703bfd6d1d8781ab623288aca84d9c9616b261c3344d697c1f5413"
    },
    {
      "constant": false,
      "inputs": [
        {
          "name": "_name",
          "type": "string"
        },
        {
          "name": "_price",
          "type": "uint256"
        }
      ],
      "name": "createProduct",
      "outputs": [],
      "payable": false,
      "stateMutability": "nonpayable",
      "type": "function",
      "signature": "0xe9300c6c"
    },
    {
      "constant": false,
      "inputs": [
        {
          "name": "_id",
          "type": "uint256"
        }
      ],
      "name": "deleteProduct",
      "outputs": [],
      "payable": false,
      "stateMutability": "nonpayable",
      "type": "function",
      "signature": "0xed90c7b7"
    },
    {
      "constant": false,
      "inputs": [
        {
          "name": "_id",
          "type": "uint256"
        }
      ],
      "name": "purchaseProduct",
      "outputs": [],
      "payable": true,
      "stateMutability": "payable",
      "type": "function",
      "signature": "0x38e76a03"
    }
  ],
  "bytecode": "0x6080604052600060015534801561001557600080fd5b506040805190810160405280601781526020017f526974696b205261776174204d61726b6574706c61636500000000000000000081525060009080519060200190610061929190610067565b5061010c565b828054600181600116156101000203166002900490600052602060002090601f016020900481019282601f106100a857805160ff19168380011785556100d6565b828001600101855582156100d6579182015b828111156100d55782518255916020019190600101906100ba565b5b5090506100e391906100e7565b5090565b61010991905b808211156101055760008160009055506001016100ed565b5090565b90565b6110ba806200011c6000396000f3fe608060405260043610610078576000357c0100000000000000000000000000000000000000000000000000000000900463ffffffff16806306fdde031461007d57806338e76a031461010d5780637acc0b201461013b578063e0f6ef8714610246578063e9300c6c14610271578063ed90c7b714610343575b600080fd5b34801561008957600080fd5b5061009261037e565b6040518080602001828103825283818151815260200191508051906020019080838360005b838110156100d25780820151818401526020810190506100b7565b50505050905090810190601f1680156100ff5780820380516001836020036101000a031916815260200191505b509250505060405180910390f35b6101396004803603602081101561012357600080fd5b810190808035906020019092919050505061041c565b005b34801561014757600080fd5b506101746004803603602081101561015e57600080fd5b810190808035906020019092919050505061087c565b60405180878152602001806020018681526020018573ffffffffffffffffffffffffffffffffffffffff1673ffffffffffffffffffffffffffffffffffffffff1681526020018415151515815260200183151515158152602001828103825287818151815260200191508051906020019080838360005b838110156102065780820151818401526020810190506101eb565b50505050905090810190601f1680156102335780820380516001836020036101000a031916815260200191505b5097505050505050505060405180910390f35b34801561025257600080fd5b5061025b61098a565b6040518082815260200191505060405180910390f35b34801561027d57600080fd5b506103416004803603604081101561029457600080fd5b81019080803590602001906401000000008111156102b157600080fd5b8201836020820111156102c357600080fd5b803590602001918460018302840111640100000000831117156102e557600080fd5b91908080601f016020809104026020016040519081016040528093929190818152602001838380828437600081840152601f19601f82011690508083019250505050505050919291929080359060200190929190505050610990565b005b34801561034f57600080fd5b5061037c6004803603602081101561036657600080fd5b8101908080359060200190929190505050610bdc565b005b60008054600181600116156101000203166002900480601f0160208091040260200160405190810160405280929190818152602001828054600181600116156101000203166002900480156104145780601f106103e957610100808354040283529160200191610414565b820191906000526020600020905b8154815290600101906020018083116103f757829003601f168201915b505050505081565b610424610f98565b6002600083815260200190815260200160002060c0604051908101604052908160008201548152602001600182018054600181600116156101000203166002900480601f0160208091040260200160405190810160405280929190818152602001828054600181600116156101000203166002900480156104e65780601f106104bb576101008083540402835291602001916104e6565b820191906000526020600020905b8154815290600101906020018083116104c957829003601f168201915b50505050508152602001600282015481526020016003820160009054906101000a900473ffffffffffffffffffffffffffffffffffffffff1673ffffffffffffffffffffffffffffffffffffffff1673ffffffffffffffffffffffffffffffffffffffff1681526020016003820160149054906101000a900460ff161515151581526020016003820160159054906101000a900460ff1615151515815250509050600081606001519050600082600001511180156105aa5750600154826000015111155b15156105b557600080fd5b816040015134101515156105c857600080fd5b81608001511515156105d957600080fd5b3373ffffffffffffffffffffffffffffffffffffffff168173ffffffffffffffffffffffffffffffffffffffff161415151561061457600080fd5b33826060019073ffffffffffffffffffffffffffffffffffffffff16908173ffffffffffffffffffffffffffffffffffffffff168152505060018260800190151590811515815250508160026000858152602001908152602001600020600082015181600001556020820151816001019080519060200190610697929190610fe9565b506040820151816002015560608201518160030160006101000a81548173ffffffffffffffffffffffffffffffffffffffff021916908373ffffffffffffffffffffffffffffffffffffffff16021790555060808201518160030160146101000a81548160ff02191690831515021790555060a08201518160030160156101000a81548160ff0219169083151502179055509050508073ffffffffffffffffffffffffffffffffffffffff166108fc349081150290604051600060405180830381858888f19350505050158015610772573d6000803e3d6000fd5b507f30fe1766f4be498b4b6e89a857a816b991b86ede45bd1a0f89a34cebccbd796d60015483602001518460400151336001600060405180878152602001806020018681526020018573ffffffffffffffffffffffffffffffffffffffff1673ffffffffffffffffffffffffffffffffffffffff1681526020018415151515815260200183151515158152602001828103825287818151815260200191508051906020019080838360005b8381101561083857808201518184015260208101905061081d565b50505050905090810190601f1680156108655780820380516001836020036101000a031916815260200191505b5097505050505050505060405180910390a1505050565b6002602052806000526040600020600091509050806000015490806001018054600181600116156101000203166002900480601f01602080910402602001604051908101604052809291908181526020018280546001816001161561010002031660029004801561092e5780601f106109035761010080835404028352916020019161092e565b820191906000526020600020905b81548152906001019060200180831161091157829003601f168201915b5050505050908060020154908060030160009054906101000a900473ffffffffffffffffffffffffffffffffffffffff16908060030160149054906101000a900460ff16908060030160159054906101000a900460ff16905086565b60015481565b600082511115156109a057600080fd5b6000811115156109af57600080fd5b60016000815480929190600101919050555060c06040519081016040528060015481526020018381526020018281526020013373ffffffffffffffffffffffffffffffffffffffff16815260200160001515815260200160001515815250600260006001548152602001908152602001600020600082015181600001556020820151816001019080519060200190610a48929190610fe9565b506040820151816002015560608201518160030160006101000a81548173ffffffffffffffffffffffffffffffffffffffff021916908373ffffffffffffffffffffffffffffffffffffffff16021790555060808201518160030160146101000a81548160ff02191690831515021790555060a08201518160030160156101000a81548160ff0219169083151502179055509050507fc7874741d6d69988c1782a4eb1fdeff8733853cb23ed70504ede1763de6fbd7560015483833360008060405180878152602001806020018681526020018573ffffffffffffffffffffffffffffffffffffffff1673ffffffffffffffffffffffffffffffffffffffff1681526020018415151515815260200183151515158152602001828103825287818151815260200191508051906020019080838360005b83811015610b99578082015181840152602081019050610b7e565b50505050905090810190601f168015610bc65780820380516001836020036101000a031916815260200191505b5097505050505050505060405180910390a15050565b610be4610f98565b6002600083815260200190815260200160002060c0604051908101604052908160008201548152602001600182018054600181600116156101000203166002900480601f016020809104026020016040519081016040528092919081815260200182805460018160011615610100020316600290048015610ca65780601f10610c7b57610100808354040283529160200191610ca6565b820191906000526020600020905b815481529060010190602001808311610c8957829003601f168201915b50505050508152602001600282015481526020016003820160009054906101000a900473ffffffffffffffffffffffffffffffffffffffff1673ffffffffffffffffffffffffffffffffffffffff1673ffffffffffffffffffffffffffffffffffffffff1681526020016003820160149054906101000a900460ff161515151581526020016003820160159054906101000a900460ff161515151581525050905060008160600151905060008260000151118015610d6a5750600154826000015111155b1515610d7557600080fd5b3373ffffffffffffffffffffffffffffffffffffffff168173ffffffffffffffffffffffffffffffffffffffff16141515610daf57600080fd5b60018260a00190151590811515815250508160026000858152602001908152602001600020600082015181600001556020820151816001019080519060200190610dfa929190610fe9565b506040820151816002015560608201518160030160006101000a81548173ffffffffffffffffffffffffffffffffffffffff021916908373ffffffffffffffffffffffffffffffffffffffff16021790555060808201518160030160146101000a81548160ff02191690831515021790555060a08201518160030160156101000a81548160ff0219169083151502179055509050507f70a95b8ef2703bfd6d1d8781ab623288aca84d9c9616b261c3344d697c1f541360015483602001518460400151336000600160405180878152602001806020018681526020018573ffffffffffffffffffffffffffffffffffffffff1673ffffffffffffffffffffffffffffffffffffffff1681526020018415151515815260200183151515158152602001828103825287818151815260200191508051906020019080838360005b83811015610f54578082015181840152602081019050610f39565b50505050905090810190601f168015610f815780820380516001836020036101000a031916815260200191505b5097505050505050505060405180910390a1505050565b60c060405190810160405280600081526020016060815260200160008152602001600073ffffffffffffffffffffffffffffffffffffffff1681526020016000151581526020016000151581525090565b828054600181600116156101000203166002900490600052602060002090601f016020900481019282601f1061102a57805160ff1916838001178555611058565b82800160010185558215611058579182015b8281111561105757825182559160200191906001019061103c565b5b5090506110659190611069565b5090565b61108b91905b8082111561108757600081600090555060010161106f565b5090565b9056fea165627a7a7230582058583cf8edccc3247c32a0e9ee00237fd7833eed166f90d3c48167ff90668de20029",
  "source": "pragma solidity ^0.5.0;\n\ncontract Marketplace {\n string public name;\n   uint public productCount = 0;\n    mapping(uint => Product) public products;\n\n   struct Product {\n    uint id;\n    string name;\n    uint price;\n    address owner;\n    bool purchased;\n    bool deleted;\n}   \n     event ProductCreated(\n        uint id,\n        string name,\n        uint price,\n        address owner,\n        bool purchased,\n        bool deleted\n    );\n    event ProductPurchased(\n    uint id,\n    string name,\n    uint price,\n    address payable owner,\n    bool purchased,\n    bool deleted\n);\nevent ProductDeleted(\n    uint id,\n    string name,\n    uint price,\n    address payable owner,\n    bool purchased,\n     bool deleted\n);\n\n constructor() public {\n        name = \"Ritik Rawat Marketplace\";\n    }\n function createProduct(string memory _name, uint _price) public {\n        // Require a valid name\n        require(bytes(_name).length > 0);\n        // Require a valid price\n        require(_price > 0);\n        // Increment product count\n        productCount++;\n        // Create the product\n        products[productCount] = Product(productCount, _name, _price, msg.sender, false,false);\n        // Trigger an event\n        emit ProductCreated(productCount, _name, _price, msg.sender, false,false);\n    }\n\n  function deleteProduct(uint _id) public {\n       Product memory _product = products[_id];\n    // Fetch the owner\n    address payable _seller = address(uint160(_product.owner));\n    // Make sure the product has a valid id\n    require(_product.id > 0 && _product.id <= productCount);\n    // Require that the buyer is the seller\n    require(_seller == msg.sender);\n    _product.deleted=true;\n    // Update the product\n    products[_id] = _product;\n    // Trigger an event\n    emit ProductDeleted(productCount, _product.name, _product.price, msg.sender, false,true);\n    }\n  \n\n    function purchaseProduct(uint _id) public payable {\n    // Fetch the product\n    Product memory _product = products[_id];\n    // Fetch the owner\n    address payable _seller = address(uint160(_product.owner));\n    // Make sure the product has a valid id\n    require(_product.id > 0 && _product.id <= productCount);\n    // Require that there is enough Ether in the transaction\n    require(msg.value >= _product.price);\n    // Require that the product has not been purchased already\n    require(!_product.purchased);\n    // Require that the buyer is not the seller\n    require(_seller != msg.sender);\n    // Transfer ownership to the buyer\n    _product.owner = msg.sender;\n    // Mark as purchased\n    _product.purchased = true;\n    // Update the product\n    products[_id] = _product;\n    // Pay the seller by sending them Ether\n    address(_seller).transfer(msg.value);\n    // Trigger an event\n    emit ProductPurchased(productCount, _product.name, _product.price, msg.sender, true, false);\n}\n}",
  "sourcePath": "/Users/apple/marketplace/src/contracts/Marketplace.sol",
  "compiler": {
    "name": "solc",
    "version": "0.5.0+commit.1d4f565a.Emscripten.clang"
  },
  "schemaVersion": "3.0.1",
  "updatedAt": "2022-12-19T15:47:57.969Z",
  "devdoc": {
    "methods": {}
  },
  "userdoc": {
    "methods": {}
  }
}